:100000000C942A000C9434000C9434000C943400AA
:100010000C9434000C9434000C9434000C94340090
:100020000C9434000C9434000C9434000C94340080
:100030000C9434000C9434000C9434000C94340070
:100040000C9434000C9434000C9434000C94340060
:100050000C94340011241FBECFE5D8E0DEBFCDBF25
:100060000E9436000C9454000C9400008FEF8ABB61
:1000700087B38F7487BBBE9A80E48DB981E48FB952
:10008000779BFECF8FB18BBB80E090E0089587B364
:100090008F7487BBBE9A089580E48DB908958FB997
:0C00A000779BFECF8FB10895F894FFCF3E
:00000001FF
